{
  "contractName": "earn_project",
  "abi": [
    {
      "inputs": [
        {
          "internalType": "string",
          "name": "_zone",
          "type": "string"
        },
        {
          "internalType": "string",
          "name": "_ID_noeud",
          "type": "string"
        },
        {
          "internalType": "uint256",
          "name": "_Date",
          "type": "uint256"
        }
      ],
      "name": "storeData",
      "outputs": [],
      "stateMutability": "nonpayable",
      "type": "function"
    },
    {
      "inputs": [
        {
          "internalType": "uint256",
          "name": "_timestamp",
          "type": "uint256"
        }
      ],
      "name": "getDataByDate",
      "outputs": [
        {
          "internalType": "string",
          "name": "",
          "type": "string"
        },
        {
          "internalType": "string",
          "name": "",
          "type": "string"
        },
        {
          "internalType": "uint256",
          "name": "",
          "type": "uint256"
        },
        {
          "internalType": "bytes32",
          "name": "",
          "type": "bytes32"
        }
      ],
      "stateMutability": "view",
      "type": "function"
    },
    {
      "inputs": [],
      "name": "getAllTransactions",
      "outputs": [
        {
          "components": [
            {
              "internalType": "string",
              "name": "zone",
              "type": "string"
            },
            {
              "internalType": "string",
              "name": "ID_noeud",
              "type": "string"
            },
            {
              "internalType": "uint256",
              "name": "Date",
              "type": "uint256"
            },
            {
              "internalType": "bytes32",
              "name": "dataHash",
              "type": "bytes32"
            }
          ],
          "internalType": "struct earn_project.Data[]",
          "name": "",
          "type": "tuple[]"
        }
      ],
      "stateMutability": "view",
      "type": "function"
    }
  ],
  "bytecode": "0x608060405234801561001057600080fd5b50610e58806100206000396000f3fe608060405234801561001057600080fd5b50600436106100415760003560e01c806327506f5314610046578063524aa75a14610064578063f7964bca14610080575b600080fd5b61004e6100b3565b60405161005b9190610880565b60405180910390f35b61007e60048036038101906100799190610a17565b6102ce565b005b61009a60048036038101906100959190610aa2565b6103df565b6040516100aa9493929190610b37565b60405180910390f35b6060600060018054905067ffffffffffffffff8111156100d6576100d56108c0565b5b60405190808252806020026020018201604052801561010f57816020015b6100fc6105bb565b8152602001906001900390816100f45790505b50905060005b6001805490508110156102c6576000806001838154811061013957610138610b8a565b5b9060005260206000200154815260200190815260200160002060405180608001604052908160008201805461016d90610be8565b80601f016020809104026020016040519081016040528092919081815260200182805461019990610be8565b80156101e65780601f106101bb576101008083540402835291602001916101e6565b820191906000526020600020905b8154815290600101906020018083116101c957829003601f168201915b505050505081526020016001820180546101ff90610be8565b80601f016020809104026020016040519081016040528092919081815260200182805461022b90610be8565b80156102785780601f1061024d57610100808354040283529160200191610278565b820191906000526020600020905b81548152906001019060200180831161025b57829003601f168201915b50505050508152602001600282015481526020016003820154815250508282815181106102a8576102a7610b8a565b5b602002602001018190525080806102be90610c49565b915050610115565b508091505090565b60008060008381526020019081526020016000206002015414610326576040517f08c379a000000000000000000000000000000000000000000000000000000000815260040161031d90610d04565b60405180910390fd5b600083838360405160200161033d93929190610d81565b60405160208183030381529060405280519060200120905060008060008481526020019081526020016000209050848160000190805190602001906103839291906105e6565b508381600101908051906020019061039c9291906105e6565b5082816002018190555081816003018190555060018390806001815401808255809150506001900390600052602060002001600090919091909150555050505050565b606080600080600080600087815260200190815260200160002060020154141561043e576040517f08c379a000000000000000000000000000000000000000000000000000000000815260040161043590610e02565b60405180910390fd5b600080600087815260200190815260200160002060405180608001604052908160008201805461046d90610be8565b80601f016020809104026020016040519081016040528092919081815260200182805461049990610be8565b80156104e65780601f106104bb576101008083540402835291602001916104e6565b820191906000526020600020905b8154815290600101906020018083116104c957829003601f168201915b505050505081526020016001820180546104ff90610be8565b80601f016020809104026020016040519081016040528092919081815260200182805461052b90610be8565b80156105785780601f1061054d57610100808354040283529160200191610578565b820191906000526020600020905b81548152906001019060200180831161055b57829003601f168201915b5050505050815260200160028201548152602001600382015481525050905080600001518160200151826040015183606001519450945094509450509193509193565b6040518060800160405280606081526020016060815260200160008152602001600080191681525090565b8280546105f290610be8565b90600052602060002090601f016020900481019282610614576000855561065b565b82601f1061062d57805160ff191683800117855561065b565b8280016001018555821561065b579182015b8281111561065a57825182559160200191906001019061063f565b5b509050610668919061066c565b5090565b5b8082111561068557600081600090555060010161066d565b5090565b600081519050919050565b600082825260208201905092915050565b6000819050602082019050919050565b600081519050919050565b600082825260208201905092915050565b60005b838110156106ef5780820151818401526020810190506106d4565b838111156106fe576000848401525b50505050565b6000601f19601f8301169050919050565b6000610720826106b5565b61072a81856106c0565b935061073a8185602086016106d1565b61074381610704565b840191505092915050565b6000819050919050565b6107618161074e565b82525050565b6000819050919050565b61077a81610767565b82525050565b6000608083016000830151848203600086015261079d8282610715565b915050602083015184820360208601526107b78282610715565b91505060408301516107cc6040860182610758565b5060608301516107df6060860182610771565b508091505092915050565b60006107f68383610780565b905092915050565b6000602082019050919050565b600061081682610689565b6108208185610694565b935083602082028501610832856106a5565b8060005b8581101561086e578484038952815161084f85826107ea565b945061085a836107fe565b925060208a01995050600181019050610836565b50829750879550505050505092915050565b6000602082019050818103600083015261089a818461080b565b905092915050565b6000604051905090565b600080fd5b600080fd5b600080fd5b600080fd5b7f4e487b7100000000000000000000000000000000000000000000000000000000600052604160045260246000fd5b6108f882610704565b810181811067ffffffffffffffff82111715610917576109166108c0565b5b80604052505050565b600061092a6108a2565b905061093682826108ef565b919050565b600067ffffffffffffffff821115610956576109556108c0565b5b61095f82610704565b9050602081019050919050565b82818337600083830152505050565b600061098e6109898461093b565b610920565b9050828152602081018484840111156109aa576109a96108bb565b5b6109b584828561096c565b509392505050565b600082601f8301126109d2576109d16108b6565b5b81356109e284826020860161097b565b91505092915050565b6109f48161074e565b81146109ff57600080fd5b50565b600081359050610a11816109eb565b92915050565b600080600060608486031215610a3057610a2f6108ac565b5b600084013567ffffffffffffffff811115610a4e57610a4d6108b1565b5b610a5a868287016109bd565b935050602084013567ffffffffffffffff811115610a7b57610a7a6108b1565b5b610a87868287016109bd565b9250506040610a9886828701610a02565b9150509250925092565b600060208284031215610ab857610ab76108ac565b5b6000610ac684828501610a02565b91505092915050565b600082825260208201905092915050565b6000610aeb826106b5565b610af58185610acf565b9350610b058185602086016106d1565b610b0e81610704565b840191505092915050565b610b228161074e565b82525050565b610b3181610767565b82525050565b60006080820190508181036000830152610b518187610ae0565b90508181036020830152610b658186610ae0565b9050610b746040830185610b19565b610b816060830184610b28565b95945050505050565b7f4e487b7100000000000000000000000000000000000000000000000000000000600052603260045260246000fd5b7f4e487b7100000000000000000000000000000000000000000000000000000000600052602260045260246000fd5b60006002820490506001821680610c0057607f821691505b60208210811415610c1457610c13610bb9565b5b50919050565b7f4e487b7100000000000000000000000000000000000000000000000000000000600052601160045260246000fd5b6000610c548261074e565b91507fffffffffffffffffffffffffffffffffffffffffffffffffffffffffffffffff821415610c8757610c86610c1a565b5b600182019050919050565b7f4461746120616c72656164792065786973747320666f7220746869732074696d60008201527f657374616d700000000000000000000000000000000000000000000000000000602082015250565b6000610cee602683610acf565b9150610cf982610c92565b604082019050919050565b60006020820190508181036000830152610d1d81610ce1565b9050919050565b600081905092915050565b6000610d3a826106b5565b610d448185610d24565b9350610d548185602086016106d1565b80840191505092915050565b6000819050919050565b610d7b610d768261074e565b610d60565b82525050565b6000610d8d8286610d2f565b9150610d998285610d2f565b9150610da58284610d6a565b602082019150819050949350505050565b7f4e6f206461746120666f756e6420666f7220746869732074696d657374616d70600082015250565b6000610dec602083610acf565b9150610df782610db6565b602082019050919050565b60006020820190508181036000830152610e1b81610ddf565b905091905056fea264697066735822122031f53ab34c129bf204abc6f85e74200696355288793a7f2430017b10fd8ccd8264736f6c63430008090033",
  "immutableReferences": {},
  "source": "// SPDX-License-Identifier: MIT\n\npragma solidity ^0.8.9;\n\ncontract earn_project {\n    struct Data {\n        string zone;\n        string ID_noeud;\n        uint256 Date;\n        bytes32 dataHash; // Ajout d'un champ pour stocker le hachage\n    }\n\n    mapping(uint256 => Data) private dataByDate;\n    uint256[] private allDates;\n\n    function storeData(string memory _zone, string memory _ID_noeud, uint256 _Date) public {\n        require(dataByDate[_Date].Date == 0, \"Data already exists for this timestamp\");\n\n        bytes32 dataHash = keccak256(abi.encodePacked(_zone, _ID_noeud, _Date)); // Calcul du hachage\n        Data storage newData = dataByDate[_Date];\n        newData.zone = _zone;\n        newData.ID_noeud = _ID_noeud;\n        newData.Date = _Date;\n        newData.dataHash = dataHash; // Stockage du hachage\n\n        allDates.push(_Date);\n    }\n\n    function getDataByDate(uint256 _timestamp) public view returns (string memory, string memory, uint256, bytes32) {\n        require(dataByDate[_timestamp].Date != 0, \"No data found for this timestamp\");\n\n        Data memory existingData = dataByDate[_timestamp];\n        return (existingData.zone, existingData.ID_noeud, existingData.Date, existingData.dataHash);\n    }\n\n    function getAllTransactions() public view returns (Data[] memory) {\n        Data[] memory transactions = new Data[](allDates.length);\n        \n        for (uint256 i = 0; i < allDates.length; i++) {\n            transactions[i] = dataByDate[allDates[i]];\n        }\n\n        return transactions;\n    }\n}\n",
  "sourcePath": "C:\\Users\\ACER\\PFE\\truffle_project\\contracts\\earn_project.sol",
  "compiler": {
    "name": "solc",
    "version": "0.8.9+commit.e5eed63a.Emscripten.clang"
  },
  "schemaVersion": "3.4.14",
  "updatedAt": "2024-02-16T20:15:18.560Z",
  "devdoc": {
    "kind": "dev",
    "methods": {},
    "version": 1
  },
  "userdoc": {
    "kind": "user",
    "methods": {},
    "version": 1
  }
}