{
  "contractName": "earn_project",
  "abi": [
    {
      "inputs": [
        {
          "internalType": "string",
          "name": "_zone",
          "type": "string"
        },
        {
          "internalType": "string",
          "name": "_ID_noeud",
          "type": "string"
        },
        {
          "internalType": "uint256",
          "name": "_Date",
          "type": "uint256"
        }
      ],
      "name": "storeData",
      "outputs": [],
      "stateMutability": "nonpayable",
      "type": "function"
    },
    {
      "inputs": [
        {
          "internalType": "uint256",
          "name": "_timestamp",
          "type": "uint256"
        }
      ],
      "name": "getDataByDate",
      "outputs": [
        {
          "internalType": "string",
          "name": "",
          "type": "string"
        },
        {
          "internalType": "string",
          "name": "",
          "type": "string"
        },
        {
          "internalType": "uint256",
          "name": "",
          "type": "uint256"
        }
      ],
      "stateMutability": "view",
      "type": "function"
    },
    {
      "inputs": [],
      "name": "getAllTransactions",
      "outputs": [
        {
          "components": [
            {
              "internalType": "string",
              "name": "zone",
              "type": "string"
            },
            {
              "internalType": "string",
              "name": "ID_noeud",
              "type": "string"
            },
            {
              "internalType": "uint256",
              "name": "Date",
              "type": "uint256"
            }
          ],
          "internalType": "struct earn_project.Data[]",
          "name": "",
          "type": "tuple[]"
        }
      ],
      "stateMutability": "view",
      "type": "function"
    }
  ],
  "bytecode": "0x608060405234801561001057600080fd5b50610d1c806100206000396000f3fe608060405234801561001057600080fd5b50600436106100415760003560e01c806327506f5314610046578063524aa75a14610064578063f7964bca14610080575b600080fd5b61004e6100b2565b60405161005b91906107f3565b60405180910390f35b61007e6004803603810190610079919061098a565b6102c3565b005b61009a60048036038101906100959190610a15565b61039b565b6040516100a993929190610a9b565b60405180910390f35b6060600060018054905067ffffffffffffffff8111156100d5576100d4610833565b5b60405190808252806020026020018201604052801561010e57816020015b6100fb610564565b8152602001906001900390816100f35790505b50905060005b6001805490508110156102bb576000806001838154811061013857610137610ae0565b5b9060005260206000200154815260200190815260200160002060405180606001604052908160008201805461016c90610b3e565b80601f016020809104026020016040519081016040528092919081815260200182805461019890610b3e565b80156101e55780601f106101ba576101008083540402835291602001916101e5565b820191906000526020600020905b8154815290600101906020018083116101c857829003601f168201915b505050505081526020016001820180546101fe90610b3e565b80601f016020809104026020016040519081016040528092919081815260200182805461022a90610b3e565b80156102775780601f1061024c57610100808354040283529160200191610277565b820191906000526020600020905b81548152906001019060200180831161025a57829003601f168201915b5050505050815260200160028201548152505082828151811061029d5761029c610ae0565b5b602002602001018190525080806102b390610b9f565b915050610114565b508091505090565b6000806000838152602001908152602001600020600201541461031b576040517f08c379a000000000000000000000000000000000000000000000000000000000815260040161031290610c5a565b60405180910390fd5b6000806000838152602001908152602001600020905083816000019080519060200190610349929190610585565b5082816001019080519060200190610362929190610585565b50818160020181905550600182908060018154018082558091505060019003906000526020600020016000909190919091505550505050565b6060806000806000808681526020019081526020016000206002015414156103f8576040517f08c379a00000000000000000000000000000000000000000000000000000000081526004016103ef90610cc6565b60405180910390fd5b600080600086815260200190815260200160002060405180606001604052908160008201805461042790610b3e565b80601f016020809104026020016040519081016040528092919081815260200182805461045390610b3e565b80156104a05780601f10610475576101008083540402835291602001916104a0565b820191906000526020600020905b81548152906001019060200180831161048357829003601f168201915b505050505081526020016001820180546104b990610b3e565b80601f01602080910402602001604051908101604052809291908181526020018280546104e590610b3e565b80156105325780601f1061050757610100808354040283529160200191610532565b820191906000526020600020905b81548152906001019060200180831161051557829003601f168201915b505050505081526020016002820154815250509050806000015181602001518260400151935093509350509193909250565b60405180606001604052806060815260200160608152602001600081525090565b82805461059190610b3e565b90600052602060002090601f0160209004810192826105b357600085556105fa565b82601f106105cc57805160ff19168380011785556105fa565b828001600101855582156105fa579182015b828111156105f95782518255916020019190600101906105de565b5b509050610607919061060b565b5090565b5b8082111561062457600081600090555060010161060c565b5090565b600081519050919050565b600082825260208201905092915050565b6000819050602082019050919050565b600081519050919050565b600082825260208201905092915050565b60005b8381101561068e578082015181840152602081019050610673565b8381111561069d576000848401525b50505050565b6000601f19601f8301169050919050565b60006106bf82610654565b6106c9818561065f565b93506106d9818560208601610670565b6106e2816106a3565b840191505092915050565b6000819050919050565b610700816106ed565b82525050565b6000606083016000830151848203600086015261072382826106b4565b9150506020830151848203602086015261073d82826106b4565b915050604083015161075260408601826106f7565b508091505092915050565b60006107698383610706565b905092915050565b6000602082019050919050565b600061078982610628565b6107938185610633565b9350836020820285016107a585610644565b8060005b858110156107e157848403895281516107c2858261075d565b94506107cd83610771565b925060208a019950506001810190506107a9565b50829750879550505050505092915050565b6000602082019050818103600083015261080d818461077e565b905092915050565b6000604051905090565b600080fd5b600080fd5b600080fd5b600080fd5b7f4e487b7100000000000000000000000000000000000000000000000000000000600052604160045260246000fd5b61086b826106a3565b810181811067ffffffffffffffff8211171561088a57610889610833565b5b80604052505050565b600061089d610815565b90506108a98282610862565b919050565b600067ffffffffffffffff8211156108c9576108c8610833565b5b6108d2826106a3565b9050602081019050919050565b82818337600083830152505050565b60006109016108fc846108ae565b610893565b90508281526020810184848401111561091d5761091c61082e565b5b6109288482856108df565b509392505050565b600082601f83011261094557610944610829565b5b81356109558482602086016108ee565b91505092915050565b610967816106ed565b811461097257600080fd5b50565b6000813590506109848161095e565b92915050565b6000806000606084860312156109a3576109a261081f565b5b600084013567ffffffffffffffff8111156109c1576109c0610824565b5b6109cd86828701610930565b935050602084013567ffffffffffffffff8111156109ee576109ed610824565b5b6109fa86828701610930565b9250506040610a0b86828701610975565b9150509250925092565b600060208284031215610a2b57610a2a61081f565b5b6000610a3984828501610975565b91505092915050565b600082825260208201905092915050565b6000610a5e82610654565b610a688185610a42565b9350610a78818560208601610670565b610a81816106a3565b840191505092915050565b610a95816106ed565b82525050565b60006060820190508181036000830152610ab58186610a53565b90508181036020830152610ac98185610a53565b9050610ad86040830184610a8c565b949350505050565b7f4e487b7100000000000000000000000000000000000000000000000000000000600052603260045260246000fd5b7f4e487b7100000000000000000000000000000000000000000000000000000000600052602260045260246000fd5b60006002820490506001821680610b5657607f821691505b60208210811415610b6a57610b69610b0f565b5b50919050565b7f4e487b7100000000000000000000000000000000000000000000000000000000600052601160045260246000fd5b6000610baa826106ed565b91507fffffffffffffffffffffffffffffffffffffffffffffffffffffffffffffffff821415610bdd57610bdc610b70565b5b600182019050919050565b7f4461746120616c72656164792065786973747320666f7220746869732074696d60008201527f657374616d700000000000000000000000000000000000000000000000000000602082015250565b6000610c44602683610a42565b9150610c4f82610be8565b604082019050919050565b60006020820190508181036000830152610c7381610c37565b9050919050565b7f4e6f206461746120666f756e6420666f7220746869732074696d657374616d70600082015250565b6000610cb0602083610a42565b9150610cbb82610c7a565b602082019050919050565b60006020820190508181036000830152610cdf81610ca3565b905091905056fea2646970667358221220e55133225d7771e02468946111fc58d2b2375663139638b165d4a0ea7f2f337c64736f6c63430008090033",
  "immutableReferences": {},
  "source": "// SPDX-License-Identifier: MIT\n\npragma solidity ^0.8.9;\n\ncontract earn_project {\n    struct Data {\n        string zone;\n        string ID_noeud;\n        uint256 Date;\n    }\n\n    mapping(uint256 => Data) private dataByDate;\n    uint256[] private allDates;\n\n    function storeData(string memory _zone, string memory _ID_noeud, uint256 _Date) public {\n        require(dataByDate[_Date].Date == 0, \"Data already exists for this timestamp\");\n\n        Data storage newData = dataByDate[_Date];\n        newData.zone = _zone;\n        newData.ID_noeud = _ID_noeud;\n        newData.Date = _Date;\n\n        allDates.push(_Date);\n    }\n\n    function getDataByDate(uint256 _timestamp) public view returns (string memory, string memory, uint256) {\n        require(dataByDate[_timestamp].Date != 0, \"No data found for this timestamp\");\n\n        Data memory existingData = dataByDate[_timestamp];\n        return (existingData.zone, existingData.ID_noeud, existingData.Date);\n    }\n\n    function getAllTransactions() public view returns (Data[] memory) {\n        Data[] memory transactions = new Data[](allDates.length);\n        \n        for (uint256 i = 0; i < allDates.length; i++) {\n            transactions[i] = dataByDate[allDates[i]];\n        }\n\n        return transactions;\n    }\n}\n",
  "sourcePath": "C:\\Users\\ACER\\PFE\\truffle_project\\contracts\\earn_project.sol",
  "compiler": {
    "name": "solc",
    "version": "0.8.9+commit.e5eed63a.Emscripten.clang"
  },
  "schemaVersion": "3.4.14",
  "updatedAt": "2023-08-08T10:55:25.996Z",
  "devdoc": {
    "kind": "dev",
    "methods": {},
    "version": 1
  },
  "userdoc": {
    "kind": "user",
    "methods": {},
    "version": 1
  }
}